S010000050726F6A314D4C522E737265635D
S11300000C9436000C945E000C945E000C94B004C6
S11300100C94D9040C9402050C94260A0C945E00EA
S11300200C945E000C94AC090C945E000C94700962
S11300300C945E000C945E000C945E000C945E00C4
S11300400C9434090C945E000C945E000C945E00D5
S11300500C945E000C945E000C945E000C945E00A4
S11300600C945E000C945E0014071B0711241FBE41
S1130070CFEFD8E0DEBFCDBF11E0A0E0B1E0EEE10C
S1130080F5E202C005900D92A436B107D9F721E03C
S1130090A4E6B1E001C01D92A43BB207E1F710E071
S11300A0C5E3D0E004C02197FE010E94E30CC433F1
S11300B0D107C9F70E94A3060C9482120C94000085
S11300C0FC010FB6F8946091B0017091B101809178
S11300D0B2019091B3010FBE309721F06083718318
S11300E08283938308950F93863030F092EF980FB4
S11300F0963020F491E003C091E001C090E0992390
S1130100C9F1863008F08E50806480937C00EAE761
S1130110F0E0808180688083808180648083808136
S11301208160808380818260808380818460808319
S113013020917A0030E040E050E060E070E080E040
S113014090E004E00E94BB0C217030E040E050E0FD
S113015060E070E080E090E0A0E00E94D70C41F302
S1130160EAE7F0E08081806180838091780090915B
S1130170790002C080E090E00F9108950F931F93DF
S1130180CF93DF938C01C0E0D0E0F80182859385A2
S1130190C817D90718F50E94560EF80162857385B1
S11301A00E948C0C20853185FE01EE0FFF1FE20FAB
S11301B0F31F40815181880F991FD901A80FB91FDE
S11301C02D913C9131832083F80120853185F901FB
S11301D0E80FF91F518340832196D7CFDF91CF9148
S11301E01F910F9108954F925F926F927F928F9219
S11301F09F92AF92BF92CF92DF92EF92FF920F93B2
S11302001F93CF93DF93CDB7DEB72A970FB6F89439
S1130210DEBF0FBECDBF9A87898749835A836B831C
S11302207C832801390120E030E0A90169817A81C9
S11302308B819C810E94C00A882309F447C0E98508
S1130240FA8584849584A684B784A5019401698180
S11302507A818B819C810E941F0CE985FA85208913
S11302603189428953892D833E834F8358870E9465
S1130270540A9B01AC01C301B2010E94530AA701B5
S113028096010E941F0C6B017C012D813E814F81E0
S113029058850E94540AE985FA85608B718B828B9C
S11302A0938BA701960169817A818B819C810E943D
S11302B01F0C9B01AC01C501B4010E94540AE985DD
S11302C0FA85648775878687978706C0E985FA85E6
S11302D0408A518A628A738A2A960FB6F894DEBFDE
S11302E00FBECDBFDF91CF911F910F91FF90EF9083
S11302F0DF90CF90BF90AF909F908F907F906F9042
S11303005F904F9008954F925F926F927F928F9279
S11303109F92AF92BF92CF92DF92EF92FF920F9390
S11303201F93CF93DF9300D000D000D0CDB7DEB7BA
S11303309E838D832B0129833A834B835C83612CB9
S1130340712C6414750408F03FC08D819E810E9455
S1130350BE00AD81BE811896AD90BC9019971A96D7
S11303608D909C901B97880C991C8A0C9B1CA8143C
S1130370B90431F1F501819191915F01AD81BE81A3
S11303801496ED91FC911597880F991F880F991F6A
S1130390E80FF91F00811181228133814D915C9115
S11303A01197FA01E80FF91F40815181628173812D
S11303B0C980DA80EB80FC80CD010E94F300D7CFA6
S11303C0BFEF6B1A7B0ABDCF26960FB6F894DEBF3B
S11303D00FBECDBFDF91CF911F910F91FF90EF9092
S11303E0DF90CF90BF90AF909F908F907F906F9051
S11303F05F904F900895EF92FF920F931F93CF93C6
S1130400DF93EC018A819B810E811F818017910704
S1130410F9F08017910708F48C017801EE0CFF1CA9
S1130420EE0CFF1CB701888199810E94660E00972B
S113043021F0998388831B830A83B7018C819D8172
S11304400E94660E009721F09D838C831F830E8388
S1130450DF91CF911F910F91FF90EF9008950F932B
S11304601F93CF93DF93EC010A811B81B801660FC0
S1130470771F888599850E94660E009721F09987D9
S113048088871B870A8780E090E02A853B8582174E
S1130490930758F4E885F9859C01220F331FE20F76
S11304A0F31F918380830196F0CFDF91CF911F9149
S11304B00F9108958091640181110AC080E090E059
S11304C00E946000CB010E945B0E81E08093640176
S11304D00895AF92BF92CF92DF92EF92FF920F9363
S11304E01F93CF93DF93EC017B018A016C01888118
S11304F099810E94810D198218821B821A82D70168
S11305001296AD90BC901397B501660F771F660FD6
S1130510771F80E090E00E94660E009731F0998387
S11305208883BB82AA8281E001C080E0882349F1EC
S113053080E090E0F601228133818217930708F569
S1130540D70112962D913C91139782179307C8F403
S11305509C01220F331F220F331F0190F081E02DE5
S1130560E20FF31F4D915C91DA01A20FB31F4D917D
S11305705D916D917C914083518362837383019675
S1130580D9CF7E01B4E0EB0EF11C8C819D810E94D9
S1130590810D1D821C821F821E82F801C280D380BD
S11305A0B601660F771F660F771F80E090E00E9408
S11305B0660E009749F09D838C83D7011396DC92D5
S11305C0CE92129781E001C080E0882349F180E057
S11305D090E0F701228133818217930708F5D8014F
S11305E012962D913C91139782179307C8F49C019E
S11305F0220F331F220F331F0190F081E02DE20FF1
S1130600F31F4D915C91DA01A20FB31F4D915D91DF
S11306106D917C9140835183628373830196D9CF1A
S1130620CE010E94FB01CE010E942F020E945A02B9
S1130630DF91CF911F910F91FF90EF90DF90CF90BA
S1130640BF90AF9008954F925F926F927F928F9276
S11306509F92AF92BF92CF92DF92EF92FF920F934D
S1130660CF93DF93FC010281A081B181CD91DC9114
S1130670A88121E030E040E050E060E070E080E0FC
S113068090E00E94A00C2095A223A8830281A0815F
S1130690B1811296CD91DC911397A88121E030E0CD
S11306A040E050E060E070E080E090E00E94A00C48
S11306B02095A223A8830281A5E6B1E04D905D9028
S11306C06D907C90139721E030E040E050E060E0D2
S11306D070E080E090E00E94A00C822E932EA42E65
S11306E0B52E80949094A094B09484209520A62054
S11306F0B7208D929D92AD92BC9213970281A081F6
S1130700B1811696CD91DC911797A88121E030E054
S113071040E050E060E070E080E090E00E94A00CD7
S11307202095A223A883118210821282DF91CF9197
S11307300F91FF90EF90DF90CF90BF90AF909F907C
S11307408F907F906F905F904F9008950F93CF9309
S1130750FC017894A081B18118960C91A8E6B0E0D0
S1130760CC9121E030E040E050E060E070E080E0D7
S113077090E00E94A00C2C2B2C9302810190F0811C
S1130780E02D0680F781E02DA08121E030E040E0FB
S113079050E060E070E080E090E00E94A00C2A2B22
S11307A02083CF910F910895DC01ED91FC9182811A
S11307B093818532910529F470936A0160936901EC
S11307C008958832910529F470936C0160936B014C
S11307D008958B9721F470936E0160936D010895D1
S11307E0683038F42AE031E0FC01318320836283ED
S11307F0089528EF260F263038F445E151E0FC0136
S113080051834083228308956E50663030F42AE089
S113081031E0FC0131832083628308950F936130BA
S11308207105B9F4DC0112960C911297ED91FC91CB
S11308300280F381E02DA08121E030E040E050E02F
S113084060E070E080E090E00E94A00C2A2B2083FE
S113085018C062307105A9F4FC0102810190F08195
S1130860E02D0190F081E02DA08121E030E040E016
S113087050E060E070E080E090E00E94A00C2A2B41
S113088020830F9108954F925F926F927F928F927F
S11308909F92AF92BF92CF92DF92EF92FF920F930B
S11308A0CF93DC01E62F7A016431F0F46431B8F4BB
S11308B040916501509166016091670170916801F2
S11308C03A014B01242F372D482D592D60E070E05B
S11308D080E090E00E2F0E94BB0C217001C020E04C
S11308E0211104C0C1E003C0C0E001C0C0E0CC23BA
S11308F039F167010E2F7D016E2FCD010E94F003A7
S1130900B601C7010E940E04E5E6F1E04080518083
S11309106280738021E030E040E050E060E070E00D
S113092080E090E00E94A00C822E932EA42EB52E7F
S113093084289528A628B72880829182A282B3822F
S11309408C2FCF910F91FF90EF90DF90CF90BF90BD
S1130950AF909F908F907F906F905F904F9008958D
S11309601F920F920FB60F9211242F933F934F9320
S11309705F936F937F938F939F93AF93BF93EF9303
S1130980FF93E0916901F0916A01309709F00995AC
S1130990FF91EF91BF91AF919F918F917F916F9153
S11309A05F914F913F912F910F900FBE0F901F9029
S11309B018951F920F920FB60F9211242F933F9305
S11309C04F935F936F937F938F939F93AF93BF9353
S11309D0EF93FF93E0916B01F0916C01309709F074
S11309E00995FF91EF91BF91AF919F918F917F9165
S11309F06F915F914F913F912F910F900FBE0F9088
S1130A001F9018951F920F920FB60F9211242F93D7
S1130A103F934F935F936F937F938F939F93AF9382
S1130A20BF93EF93FF93E0916D01F0916E013097C6
S1130A3009F00995FF91EF91BF91AF919F918F912B
S1130A407F916F915F914F913F912F910F900FBEC6
S1130A500F901F9018950F931F938AE891E00E94BE
S1130A60E5078823D9F08AE891E00E94BA07E0916B
S1130A709301F0919401018512857894E8E6F0E001
S1130A80A081112721E030E040E050E060E070E018
S1130A9080E090E00E94A00C2A2B20831F910F91EC
S1130AA008950F931F93CF93DF93CDB7DEB7C4564A
S1130AB0D1090FB6F894DEBF0FBECDBF82E00E940D
S1130AC07300BC0180E090E00E946D0B20E030ECEC
S1130AD04FE754E40E94C50A20E030E040EA50E4C5
S1130AE00E941F0C0DE611E0F8012485358546852A
S1130AF057850E941F0CF801208931894289538946
S1130B000E94540A20E030E040E05FE30E94540A6F
S1130B100E94370B8E010F5F1F4F24E6F8011192DC
S1130B202A95E9F79F938F937F936F938AE591E0DA
S1130B309F938F931F930F930E94350F63E671E089
S1130B40C8010E9488070FB6F894DEBF0FBECDBF60
S1130B50CC59DF4F0FB6F894DEBF0FBECDBFDF9187
S1130B60CF911F910F91089581E891E00E94E507CC
S1130B7081110E94510508950F931F93CF93DF9322
S1130B80C3E9D1E0E881F98101851285A8E6B0E0E6
S1130B90EC91112721E030E040E050E060E070E0AB
S1130BA080E090E00E94A00C2095E223EC938AE878
S1130BB091E00E9493070A81E881F9810480F5811C
S1130BC0E02D208130E040E050E060E070E080E023
S1130BD090E00E94BB0C217030E040E050E060E007
S1130BE070E080E090E0A0E00E94D70C31F00E9419
S1130BF0510581E891E00E94D807DF91CF911F91C0
S1130C000F9108950F931F93CF93DF93EC018B0102
S1130C10019739F56F3F7F4F21F5E3E9F1E0118248
S1130C201082128241E050E06DE0CF010E94430443
S1130C3020E04CE251E060E070E08AE891E00E943C
S1130C40C70820E040E65AEE61E070E081E891E0F8
S1130C500E94C708EDE6F1E084E1DF011D928A9568
S1130C60E9F7CD2B49F50F3F1F4F31F5CDE6D1E024
S1130C70888599850E94810D198618861B861A8697
S1130C808C819D810E94810D1D821C821F821E8287
S1130C90888199810E94810D198218821B821A828F
S1130CA081E891E00E9421098AE891E00E942109EB
S1130CB083E991E00E942303DF91CF911F910F916B
S1130CC008950F931F93CF93DF93EC018B01198247
S1130CD018821B821A8264E170E080E090E00E9436
S1130CE0660E009741F09983888385E090E09B83AA
S1130CF08A8381E001C080E0882301F180E090E0F4
S1130D0085309105D8F42A813B8182179307B0F48A
S1130D109C01220F331F220F331FE881F981E20F58
S1130D20F31FD801A20FB31F4D915D916D917C917A
S1130D3040835183628373830196E2CFDF91CF9125
S1130D401F910F910895CF93DF93CDB7DEB7E0974E
S1130D500FB6F894DEBF0FBECDBF84E1E2E3F1E04D
S1130D60DE01119601900D928A95E1F7BE016F5F45
S1130D707F4FCE018D960E94610684E1E6E4F1E0A6
S1130D80DE01559601900D928A95E1F7BE016B5EE6
S1130D907F4FCE0189960E946106AE01475D5F4F89
S1130DA0BE01635D7F4F8DE691E00E9469022AE0F7
S1130DB037ED43E25CE368EE73E08DE691E00E9478
S1130DC0830160E875E280E090E00E9453070E948E
S1130DD051056CEB75E083E991E00E94D4036BE26A
S1130DE075E08AE891E00E943D0864EB75E081E8D3
S1130DF091E00E943D0883E991E00E94A60386E009
S1130E0090E00E94E8090E94FB0989A59AA50E9426
S1130E10810D1AA619A61CA61BA68DA59EA50E9427
S1130E20810D0E94F409FDCF6FEF7FEF81E090E028
S1130E300E94020608956FEF7FEF80E090E00E9429
S1130E40020608950F93E82F2091C00030E040E09F
S1130E5050E060E070E080E090E005E00E94BB0CB0
S1130E60217030E040E050E060E070E080E090E02D
S1130E70A0E00E94D70C41F3E093C6000F910895BF
S1130E80CF93DF93EC018881882351F00E942207DD
S1130E9088818D3019F48AE00E9422072196F3CFCD
S1130EA0DF91CF91089520919601211130C0E1EC9A
S1130EB0F0E0208128602083E2ECF0E020812260D1
S1130EC02083208124602083603825E27207810515
S1130ED0910589F00E946D0B20E034E244E759E467
S1130EE00E941F0C20E030E040E05FE30E94540ABF
S1130EF00E943E0B02C067E670E07093C5006093E9
S1130F00C4008DE08093C60081E08093960108952B
S1130F10CF93DF93EB010E944007CE010E9440076C
S1130F20DF91CF9108950F93CF93FC01789484813E
S1130F309581A681B781892B8A2B8B2BC1F0A08147
S1130F40B18114960C91149712960D90BC91A02D1A
S1130F50CC9121E030E040E050E060E070E080E0DF
S1130F6090E00E94A00C2C2B2C9381E08087CF91E1
S1130F700F9108950F93CF93DF93DC01ED91FC91D2
S1130F8011970481C281D381E88121E030E040E0FF
S1130F9050E060E070E080E090E00E94A00C2095BA
S1130FA0E223E88318961C92DF91CF910F91089564
S1130FB0DC01ED91FC910190F081E02D1082118211
S1130FC0128213820E94930708950F931F93FC01CA
S1130FD0A081B1810D90BC91A02D0D911D912D91F9
S1130FE03C911397448155816681778104171507D5
S1130FF02607370728F08085811104C081E003C0EB
S113100081E001C080E0811107C01D921D921D92F4
S11310101C92139781E001C080E01F910F91089505
S11310200F931F93CF93DF938C01EB01209711F45F
S11310300E94BA072097A1F0BE0180E090E00E94D0
S11310406D0B2FE632E143E05EE30E94C50A20E027
S113105030E040E05FE30E94540A0E943E0B03C06C
S113106060E070E0CB01F801648375838683978325
S1131070DF91CF911F910F9108956115710569F06A
S1131080DC01ED91FC91E581F0E0EE0FFF1FE956E4
S1131090FE4F7183608381E0089580E008950F938B
S11310A0FC016115710559F48091A90180FD68C0A6
S11310B082E085BD8CE291E0918380834CC06130F5
S11310C0710539F52091A90130E040E050E060E07D
S11310D070E080E090E001E00E94BB0C217030E001
S11310E040E050E060E070E080E090E0A0E00E942A
S11310F0D70C09F047C08AE08093810080E091E03A
S1131100909389008093880086E291E091838083A4
S113111022C062307105F9F42091A90130E040E069
S113112050E060E070E080E090E002E00E94BB0CE0
S1131130217030E040E050E060E070E080E090E05A
S1131140A0E00E94D70C01F582E08093B10080E218
S113115091E0918380830190F081E02D0581E9EA9B
S1131160F1E0A08121E030E040E050E060E070E098
S113117080E090E00E94A00C2A2B208381E005C02F
S113118080E003C080E001C080E00F910895EF92F9
S1131190FF921F93CF93DF93EC017A01122F1982F0
S11311A018827B836A831C821D821E821F8218869A
S11311B00E944F08B701CE010E941008112319F0B4
S11311C0CE010E949307DF91CF911F91FF90EF9082
S11311D008950F93CF93DF93DC016115710521F41A
S11311E015BC10926E0013C06130710549F4109261
S11311F08100109289001092880010926F0007C03D
S11312006230710521F41092B10010927000ED91DA
S1131210FC9111970581C9EAD1E0E88121E030E031
S113122040E050E060E070E080E090E00E94A00CBC
S11312302095E223E8831D921C92DF91CF910F91B8
S11312400895CF93DF93EC016A817B810E94E908C2
S1131250198218821B821A821C821D821E821F829E
S11312601886DF91CF9108951F920F920FB60F92B7
S113127011242F933F934F935F936F937F938F9397
S11312809F93AF93BF93EF93FF938091A5019091A8
S1131290A601A091A701B091A8010196A11DB11DBD
S11312A08093A5019093A601A093A701B093A801F0
S11312B0E0919701F0919801309709F00995FF9119
S11312C0EF91BF91AF919F918F917F916F915F91BA
S11312D04F913F912F910F900FBE0F901F90189533
S11312E01F920F920FB60F9211242F933F934F9397
S11312F05F936F937F938F939F93AF93BF93EF937A
S1131300FF938091A1019091A201A091A301B091BA
S1131310A4010196A11DB11D8093A1019093A20186
S1131320A093A301B093A401E0919901F0919A01D3
S1131330309709F00995FF91EF91BF91AF919F917B
S11313408F917F916F915F914F913F912F910F906A
S11313500FBE0F901F9018951F920F920FB60F9209
S113136011242F933F934F935F936F937F938F93A6
S11313709F93AF93BF93EF93FF9380919D019091BF
S11313809E01A0919F01B091A0010196A11DB11DE4
S113139080939D0190939E01A0939F01B093A0011F
S11313A0E0919B01F0919C01309709F00995FF9120
S11313B0EF91BF91AF919F918F917F916F915F91C9
S11313C04F913F912F910F900FBE0F901F90189542
S11313D0F894E0E6F0E090819061908390819860C9
S11313E09083808378940895F894A89584B7877F30
S11313F084BF789408950E94F409F894E0E6F0E03C
S1131400808180618083808188608083808188601E
S1131410808378940895CF93DF93EC010E94F409BC
S1131420209721F0D093AB01C093AA01F894E0E691
S1131430F0E0808180618083808188608083808106
S1131440806480837894DF91CF9108951F920F92E6
S11314500FB60F9211242F933F934F935F936F9383
S11314607F938F939F93AF93BF93EF93FF9380E00A
S113147090E00E940B0AE091AA01F091AB01309731
S113148009F00995FF91EF91BF91AF919F918F91D1
S11314907F916F915F914F913F912F910F900FBE6C
S11314A00F901F9018955058BB27AA270E946B0ACB
S11314B00C94E50B0E94D70B38F00E94DE0B20F051
S11314C039F49F3F19F426F40C94D40B0EF4E095F0
S11314D0E7FB0C94CE0BE92F0E94F60B58F3BA17D6
S11314E0620773078407950720F079F4A6F50C9436
S11314F0180C0EF4E0950B2EBA2FA02D0B01B90198
S113150090010C01CA01A0011124FF27591B99F075
S1131510593F50F4503E68F11A16F040A22F232F81
S1131520342F4427585FF3CF469537952795A795D1
S1131530F0405395C9F77EF41F16BA0B620B730B78
S1131540840BBAF09150A1F0FF0FBB1F661F771FE9
S1131550881FC2F70EC0BA0F621F731F841F48F49E
S1131560879577956795B795F7959E3F08F0B0CF27
S11315709395880F08F09927EE0F9795879508950E
S11315800E94AA0B08F481E008950E94D90A0C94E1
S1131590E50B0E94DE0B58F00E94D70B40F029F4B3
S11315A05F3F29F00C94CE0B51110C94190C0C9440
S11315B0D40B0E94F60B68F39923B1F3552391F3EE
S11315C0951B550BBB27AA2762177307840738F0AE
S11315D09F5F5F4F220F331F441FAA1FA9F335D00B
S11315E00E2E3AF0E0E832D091505040E695001CBF
S11315F0CAF72BD0FE2F29D0660F771F881FBB1F79
S1131600261737074807AB07B0E809F0BB0B802D56
S1131610BF01FF2793585F4F3AF09E3F510578F082
S11316200C94CE0B0C94190C5F3FE4F3983ED4F366
S1131630869577956795B795F7959F5FC9F7880F56
S1131640911D9695879597F90895E1E0660F771FA8
S1131650881FBB1F621773078407BA0720F0621B39
S1131660730B840BBA0BEE1F88F7E09508950E9464
S11316703E0B6894B1110C94190C08950E94FE0B52
S113168088F09F5798F0B92F9927B751B0F0E1F03F
S1131690660F771F881F991F1AF0BA95C9F714C0EF
S11316A0B13091F00E94180CB1E008950C94180C1C
S11316B0672F782F8827B85F39F0B93FCCF3869528
S11316C077956795B395D9F73EF490958095709585
S11316D061957F4F8F4F9F4F0895E89409C097FB02
S11316E03EF490958095709561957F4F8F4F9F4FF5
S11316F09923A9F0F92F96E9BB279395F695879539
S113170077956795B795F111F8CFFAF4BB0F11F4FB
S113171060FF1BC06F5F7F4F8F4F9F4F16C08823A2
S113172011F096E911C0772321F09EE8872F762FD8
S113173005C0662371F096E8862F70E060E02AF019
S11317409A95660F771F881FDAF7880F9695879505
S113175097F90895990F0008550FAA0BE0E8FEEFDA
S113176016161706E807F907C0F012161306E40761
S1131770F50798F0621B730B840B950B39F40A265A
S113178061F0232B242B252B21F408950A2609F438
S1131790A140A6958FEF811D811D089597F99F673C
S11317A080E870E060E008959FEF80EC08950024E5
S11317B00A941616170618060906089500240A94B2
S11317C012161306140605060895092E0394000C38
S11317D011F4882352F0BB0F40F4BF2B11F460FFC7
S11317E004C06F5F7F4F8F4F9F4F089557FD9058F0
S11317F0440F551F59F05F3F71F04795880F97FBD1
S1131800991F61F09F3F79F087950895121613068A
S11318101406551FF2CF4695F1DF08C016161706B9
S11318201806991FF1CF86957105610508940895EE
S1131830E894BB2766277727CB0197F908950E9480
S1131840320C0C94E50B0E94D70B38F00E94DE0B8F
S113185020F0952311F00C94CE0B0C94D40B11248E
S11318600C94190C0E94F60B70F3959FC1F3950F1D
S113187050E0551F629FF001729FBB27F00DB11D10
S1131880639FAA27F00DB11DAA1F649F6627B00DA0
S1131890A11D661F829F2227B00DA11D621F739F89
S11318A0B00DA11D621F839FA00D611D221F749F97
S11318B03327A00D611D231F849F600D211D822FDE
S11318C0762F6A2F11249F5750409AF0F1F0882305
S11318D04AF0EE0FFF1FBB1F661F771F881F915032
S11318E05040A9F79E3F510580F00C94CE0B0C9408
S11318F0190C5F3FE4F3983ED4F38695779567958A
S1131900B795F795E7959F5FC1F7FE2B880F911D5B
S11319109695879597F90895AA1BBB1B51E107C0BB
S1131920AA1FBB1FA617B70710F0A61BB70B881F6B
S1131930991F5A95A9F780959095BC01CD010895FA
S11319400F93083090F0982F872F762F652F542F00
S1131950432F322F22270850F4CF220F331F441F66
S1131960551F661F771F881F991F0A95B2F70F919D
S1131970089597FB10F8169400080F93083098F018
S11319800850232F342F452F562F672F782F892F58
S1131990902DF4CF059497958795779567955795EE
S11319A04795379527950A95AAF70F91089500242E
S11319B0A7FD00942A173005400550056005700501
S11319C0800590050895EE0FFF1F0590F491E02D1A
S11319D009940F931F93CF93DF938230910510F4F2
S11319E082E090E0E091AE01F091AF0120E030E0C0
S11319F0A0E0B0E0309719F1408151810281138158
S1131A0048175907C8F08417950769F4109731F0FF
S1131A1012960C93129713961C9327C00093AE0151
S1131A201093AF0122C02115310519F04217530755
S1131A3018F49A01BD01EF01DF01F801DBCF211594
S1131A403105F9F0281B390B2430310580F48A81E3
S1131A509B816115710521F0FB019383828304C08E
S1131A609093AF018093AE01FE01329644C0FE0113
S1131A70E20FF31F81939193225031093983288314
S1131A803AC02091AC013091AD01232B41F4209157
S1131A900201309103013093AD012093AC012091F8
S1131AA00001309101012115310541F42DB73EB7F4
S1131AB04091040150910501241B350BE091AC01C8
S1131AC0F091AD01E217F307A0F42E1B3F0B28178A
S1131AD0390778F0AC014E5F5F4F2417350748F0A3
S1131AE04E0F5F1F5093AD014093AC0181939193CE
S1131AF002C0E0E0F0E0CF01DF91CF911F910F91A0
S1131B000895CF93DF93009709F481C0FC013297C5
S1131B1013821282A091AE01B091AF01109781F4AB
S1131B2020813181820F931F2091AC013091AD014E
S1131B302817390751F5F093AD01E093AC0167C064
S1131B40ED0120E030E0CE17DF0740F44A815B81ED
S1131B509E0141155105F1F0EA01F5CFD383C2830B
S1131B6040815181840F951FC817D90759F4888182
S1131B709981840F951F0296918380838A819B812A
S1131B80938382832115310529F4F093AF01E09307
S1131B90AE013DC0E901FB83EA8349915991C40F29
S1131BA0D51FEC17FD0761F480819181840F951F87
S1131BB00296E90199838883828193819B838A8336
S1131BC0E0E0F0E012968D919C911397009719F044
S1131BD0FD01DC01F7CF8D919C9111979D012E5F42
S1131BE03F4F820F931F2091AC013091AD01281714
S1131BF0390769F4309729F41092AF011092AE01BD
S1131C0002C013821282B093AD01A093AC01DF91A4
S1131C10CF9108958F929F92AF92BF92CF92DF920D
S1131C20EF92FF92CF93DF93EC01688179818A81EF
S1131C309B81611571058105910521F464E279EDBB
S1131C408BE597E02DE133EF41E050E00E94E8118D
S1131C5049015A019B01AC01A7EAB1E40E940712B1
S1131C606B017C01ACEEB4EFA50194010E94151246
S1131C70DC01CB018C0D9D1DAE1DBF1DB7FF03C044
S1131C800197A109B04888839983AA83BB839F776E
S1131C90DF91CF91FF90EF90DF90CF90BF90AF9006
S1131CA09F908F9008950E940A0E089586E091E017
S1131CB00E940A0E0895A0E0B0E08093060190937C
S1131CC00701A0930801B09309010895A0E0B0E0D2
S1131CD0ECE6FEE00C941E12EC01009721F4CB011B
S1131CE00E94E90CB4C0FC01E60FF71F9C012250CE
S1131CF03109E217F30708F4A8C0D9010D911C912A
S1131D00119706171707B0F00530110508F49BC0AA
S1131D10C80104978617970708F495C00250110963
S1131D20061B170B019311936D937C93CF010E94B3
S1131D30810D89C05B01A01AB10A4C01800E911E6D
S1131D40A091AE01B091AF01612C712CE12CF12C6A
S1131D50109709F446C08D919C911197A815B90567
S1131D60B1F56C0142E0C40ED11CCA14DB0478F155
S1131D704C018A189B08640142E0C40ED11C1296DF
S1131D80BC9012971396AC91B5E0CB16D10440F0F9
S1131D90B282A38391828082D9016D937C9309C01E
S1131DA00E5F1F4F800F911FF90191838083EB2DEC
S1131DB0FA2FE114F10431F0D7011396FC93EE935A
S1131DC0129741C0F093AF01E093AE013CC0681696
S1131DD0790608F43C017D0112960D90BC91A02D6A
S1131DE0B7CF8091AC019091AD0188169906E1F4CA
S1131DF066167706C8F4809100019091010100975E
S1131E0041F48DB79EB74091040150910501841BA4
S1131E10950BE817F907C8F4F093AD01E093AC0112
S1131E20F901718360830FC0CB010E94E90C7C012E
S1131E30009759F0A801BE010E942C0FCE010E9408
S1131E40810DC70104C0CE0102C080E090E0CDB78F
S1131E50DEB7EEE00C943A12FB01DC0102C0019003
S1131E600D9241505040D8F70895AEE0B0E0EBE356
S1131E70FFE00C9428120D891E8986E08C831A8356
S1131E8009838FEF9FE79E838D83AE01475E5F4F8B
S1131E906F89788DCE0101960E94570FEF81F885E6
S1131EA0E00FF11F10822E96E4E00C944412ABE094
S1131EB0B0E0EDE5FFE00C941A126C017B018A019D
S1131EC0FC0117821682838181FFCCC1CE01019669
S1131ED03C01F6019381F70193FD859193FF819174
S1131EE07F01882309F4BAC1853239F493FD8591C1
S1131EF093FF81917F01853229F4B60190E00E941D
S1131F004E11E7CF912C212C312CFFE1F315D8F0A1
S1131F108B3279F038F4803279F08332A1F4232DB6
S1131F2020611DC08D3261F0803369F4232D21605E
S1131F3016C0832D8260382EE32DE4603E2E2AC025
S1131F40F32DF8601DC037FC2DC020ED280F2A307A
S1131F5040F08E32B9F436FC81C1232D2064322E38
S1131F6019C036FE06C08AE0989E200D1124922ED8
S1131F7011C0EAE02E9E200D1124222EF32DF062D2
S1131F803F2E08C08C3621F4832D8068382E02C081
S1131F90883641F4F70193FD859193FF81917F0188
S1131FA08111B3CF982F9F7D9554933028F40C5F03
S1131FB01F4F9FE399830DC0833631F0833771F04F
S1131FC0833509F059C021C0F801808189830E5FEF
S1131FD01F4F88248394912C530113C02801F2E0ED
S1131FE04F0E511CF801A080B18036FE03C0692D4C
S1131FF070E002C06FEF7FEFC5010E9443114C01F6
S11320008201F32DFF773F2E16C0280122E0420EF5
S1132010511CF801A080B18036FE03C0692D70E028
S113202002C06FEF7FEFC5010E9438114C01F32D00
S1132030F0683F2E820133FC1BC0822D90E088168D
S11320409906B0F4B60180E290E00E944E112A9401
S1132050F4CFF50137FC859137FE81915F01B6011C
S113206090E00E944E1121102A9421E0821A9108D6
S11320708114910471F7E8C0843611F0893641F572
S1132080F80137FE07C060817181828193810C5F02
S11320901F4F08C060817181072E000C880B990BBB
S11320A00E5F1F4FF32DFF763F2E97FF09C09095CB
S11320B08095709561957F4F8F4F9F4FF0683F2EAD
S11320C02AE030E0A3010E948A11882E861845C0B8
S11320D0853731F4232D2F7EB22E2AE030E025C03F
S11320E0932D997FB92E8F36C1F018F4883579F085
S11320F0B5C0803719F0883721F0B0C0E92FE0610E
S1132100BE2EB4FE0DC0FB2DF460BF2E09C034FEFC
S11321100AC0292F2660B22E06C028E030E005C090
S113212020E130E002C020E132E0F801B7FE07C050
S113213060817181828193810C5F1F4F06C0608131
S1132140718180E090E00E5F1F4FA3010E948A110D
S1132150882E8618FB2DFF773F2E36FE0DC0232DCB
S11321602E7FA22E891458F434FE0BC032FC09C011
S1132170832D8E7EA82E05C0B82CA32C03C0B82CAA
S113218001C0B92CA4FE0FC0FE01E80DF11D808131
S1132190803321F49A2D997EA92E09C0A2FE06C08F
S11321A0B394B39404C08A2D867809F0B394A3FC45
S11321B011C0A0FE06C0B21488F4280C922C9B18FF
S11321C00EC0B21460F4B60180E290E00E944E1199
S11321D0B394F7CFB21418F42B1802C0982C212C06
S11321E0A4FE10C0B60180E390E00E944E11A2FE4E
S11321F017C0A1FC03C088E790E002C088E590E026
S1132200B6010CC08A2D867859F0A1FE02C08BE27B
S113221001C080E2A7FC8DE2B60190E00E944E115D
S1132220891438F4B60180E390E00E944E119A9428
S1132230F7CF8A94F301E80DF11D8081B60190E097
S11322400E944E118110F5CF222009F442CEB6012E
S113225080E290E00E944E112A94F6CFF601868126
S1132260978102C08FEF9FEF2B96E2E10C94361218
S1132270FC010590615070400110D8F7809590954D
S11322808E0F9F1F0895FC01615070400190011052
S1132290D8F7809590958E0F9F1F08950F931F93E5
S11322A0CF93DF93FB01238121FD03C08FEF9FEFC9
S11322B02CC022FF16C046815781248135814217E4
S11322C0530744F4A081B1819D012F5F3F4F3183B7
S11322D020838C93268137812F5F3F4F378326835A
S11322E014C08B01EC01FB010084F185E02D0995FC
S11322F0892BE1F6D80116968D919C91179701963A
S113230017969C938E931697CE01DF91CF911F91D0
S11323100F910895FA01AA27283051F1203181F153
S1132320E8946F936E7F6E5F7F4F8F4F9F4FAF4FD9
S1132330B1E03ED0B4E03CD0670F781F891F9A1FEC
S1132340A11D680F791F8A1F911DA11D6A0F711DA0
S1132350811D911DA11D20D009F468943F912AE0AC
S1132360269F11243019305D3193DEF6CF01089594
S1132370462F4770405D4193B3E00FD0C9F7F6CFC5
S1132380462F4F70405D4A3318F0495D31FD40528D
S1132390419302D0A9F7EACFB4E0A6959795879523
S11323A077956795BA95C9F7009761057105089502
S11323B09B01AC010A2E06945795479537952795AE
S11323C0BA95C9F7620F731F841F951FA01D089546
S11323D0052E97FB1EF400940E94FF1157FD07D0B1
S11323E00E94511207FC03D04EF40C94FF11509537
S11323F04095309521953F4F4F4F5F4F08959095ED
S11324008095709561957F4F8F4F9F4F08950E94DF
S11324107312A59F900DB49F900DA49F800D911DE4
S113242011240895B7FF0C9407120E940712821B0F
S1132430930B08952F923F924F925F926F927F92E7
S11324408F929F92AF92BF92CF92DF92EF92FF92C0
S11324500F931F93CF93DF93CDB7DEB7CA1BDB0B6C
S11324600FB6F894DEBF0FBECDBF09942A88398811
S113247048885F846E847D848C849B84AA84B98418
S1132480C884DF80EE80FD800C811B81AA81B98124
S1132490CE0FD11D0FB6F894DEBF0FBECDBFED0138
S11324A00895A1E21A2EAA1BBB1BFD010DC0AA1F91
S11324B0BB1FEE1FFF1FA217B307E407F50720F0A9
S11324C0A21BB30BE40BF50B661F771F881F991F24
S11324D01A9469F760957095809590959B01AC016D
S11324E0BD01CF010895A29FB001B39FC001A39F76
S11324F0700D811D1124911DB29F700D811D112439
S1132500911D089510E0C5E3D0E004C0FE010E94CF
S1112510E30C2196C633D107C9F7F894FFCF28
S113251E0000B4012000010000002A002B00290055
S113252E6D000202002400250023006B0000000051
S113253E9D0170000002A1016F000101A5016E0052
S113254E0000000000000000803F0000004000007A
S113255E404000008040000048C200004842000095
S113256E164300007A430000AF4354656D703A2061
S107257E25640A00C2
S9030000FC
